:020000040800F2
:1000000000040020B1020008AD020008AF020008A1
:10001000AF020008AF020008AF02000800000000B5
:10002000000000000000000000000000AD02000819
:10003000AD02000800000000AD020008AD0200089B
:10004000AD020008AD020008AD020008AD020008D4
:10005000AD020008AD020008AD020008AD020008C4
:10006000AD020008AD020008AD020008AD020008B4
:10007000AD020008AD020008AD020008AD020008A4
:10008000AD020008AD02000800000000AD0200084B
:10009000AD020008AD020008AD020008AD02000884
:1000A000AD020008AD020008AD020008AD02000874
:1000B000AD02000800000000AD02000800000000D2
:1000C000AD02000800000000AD02000800000000C2
:1000D0000000000000000000000000000000000020
:1000E0000000000000000000AD0200080000000059
:1000F0000000000000000000000000000000000000
:10010000AD02000800000000000000000000000038
:1001100000000000000000000000000000000000DF
:1001200000000000000000000000000000000000CF
:1001300000000000000000000000000000000000BF
:10014000000000000000000000000000AD020008F8
:1001500008B540F2115000F09CF84FF40043002223
:1001600001214FF0904000F023F84FF400430322A8
:1001700000214FF0904000F044F80FE001330B4AAB
:100180009342FBD34FF400414FF0904000F07FF8D2
:10019000002300E00133054A9342FBD34FF40041B2
:1001A0004FF0904000F071F80023E8E78096980047
:1001B000F0B50568C6684FF0000C03E00CF1010CC7
:1001C0001FFA8CFCBCF10F0F18D84FF0010E0EFA7D
:1001D0000CFE1EEA030FF1D04FEA4C044FF0030E61
:1001E0000EFA04FE25EA0E0501FA04F73D4326EA5D
:1001F0000E0E02FA04F444EA0E06DFE70560C6605C
:10020000F0BD30B501290AD0416821EA03014160FF
:1002100084684FF6FF718A4205D000211DE04168D5
:1002200019434160F4E7C56B002201E0013292B24C
:100230000F2A0DD8012191401942F7D04FEA420E02
:100240004FF0030C0CFA0EFC44EA0C040D43EDE7EE
:100250008460C56318E0013189B20F2913D84FF0CB
:10026000010C0CFA01FC1CEA030FF4D04FEA410E1A
:100270004FF0030C0CFA0EFC24EA0C0C02FA0EFEF2
:100280004EEA0C04E7E7846030BD8161704781620B
:100290007047830903F1804303F504331A6800F0C3
:1002A0001F00012181400A431A6070477047FEE732
:1002B00008B500F059F8FFF74BFF08BD274A13684F
:1002C00043F48033136000230133244A126812F48C
:1002D000003F02D1B3F5006FF6D1204B1B6813F439
:1002E000003F39D01D4B5A685A605A6842F4005298
:1002F0005A605A6842F480625A605A6822F0036277
:1003000022F470225A60DA6A22F0404222F00F0290
:10031000DA625A6842F0016242F480325A60DA6A64
:1003200042F00102DA62DA6ADA621A6842F0807236
:100330001A600A4B1B6813F0007FFAD0074B5A680B
:1003400022F003025A605A6842F002025A60034BDC
:100350005B6813F0080FFAD0704700BF001002402E
:1003600008B5FFF7ABFF08BD10B582B0634BDB6982
:1003700003F00603062B50D0604BDB6913F4005FDB
:100380004BD05E4B5E4959605E4A5A6099609A60F4
:100390001A6942F020021A611A6942F040021A6199
:1003A000564BDB6813F0010FFAD1544B1A6922F057
:1003B00020021A611A6942F010021A61DB6913F017
:1003C000060F3CD1504BA5221A804C4AD169C1F38B
:1003D000072101F0DF014C4B5980D169C1F307417E
:1003E0009980D169090ED980116AC9B21981126A3E
:1003F000C2F307225A81414BDB6813F0010FFAD197
:100400003E4B1A6922F010021A611A6922F4007236
:100410001A611A6942F080021A613C4A136843F07B
:1004200001031360394B1B6813F0020FFAD0374AEF
:10043000536843F080035360002301930CE02F4B7B
:10044000DB6903F00603022BBFD12F4BBB221A80BE
:10045000BBE7019B01330193019B4F2BF9D92B4A39
:10046000536843F0900353600023019302E0019B23
:1004700001330193019B4F2BF9D9244B5A6822F089
:1004800003025A601A6822F0867222F480321A60DF
:1004900059681F4A0A405A605A6822F0084222F4FA
:1004A00074125A60DA6A22F0404222F00F02DA62D5
:1004B0001A6B22F4817222F001021A631A6B22F481
:1004C00080321A631A6B22F000421A635A6B22F0D0
:1004D00001025A63D3F8C02022F48032C3F8C0204E
:1004E00000249C60C3F8CC40FFF73AFF21464FF050
:1004F000006000F00FF802B010BD00BF0020024005
:1005000023016745AB89EFCD00F8FF1F00100240C3
:100510000C00FF0821F0604121F07F010143024BF4
:0C0520009960BFF34F8F704700ED00E0C2
:04052C00F8B500BF5F
:04053000F8B500BF5B
:04000005080002B13C
:00000001FF
